:020000040800F2
:10000000002800201D0E0008C10D0008C70D0008C3
:10001000CD0D0008D30D0008D90D00080000000028
:10002000000000000000000000000000DF0D0008DC
:10003000EB0D000800000000F70D0008030E00089B
:10004000650E0008650E0008650E0008650E0008C4
:10005000650E0008650E0008650E0008650E0008B4
:10006000650E0008650E0008650E0008650E0008A4
:10007000650E0008650E0008650E0008650E000894
:10008000650E0008650E0008650E0008650E000884
:10009000650E0008650E0008650E0008650E000874
:1000A000650E0008650E0008650E0008650E000864
:1000B000650E0008650E000800000000650E0008CF
:1000C000650E00080000000000000000650E00083A
:1000D00000000000650E0008650E0008000000002A
:1000E000650E0008650E0008650E0008000000009F
:1000F0000000000000000000000000000000000000
:0C01000000000000000000005FF808F1A3
:10010C0010B5054C237833B9044B13B10448AFF345
:10011C0000800123237010BD0C00002000000000A3
:10012C00701C000808B5034B1BB103490348AFF31F
:10013C00008008BD0000000010000020701C0008AA
:10014C0080B582B000AF78607B68082B00F25A81D2
:10015C0001A252F823F000BF89010008D101000868
:10016C001902000861020008A9020008F102000847
:10017C003903000881030008C9030008002201218B
:10018C00B44801F04FF900220221B24801F04AF9BB
:10019C0000220421AF4801F045F900220821AD48A6
:1001AC0001F040F900221021AA4801F03BF900228D
:1001BC002021A84801F036F901224021A54801F080
:1001CC0031F943E101220121A24801F02BF900226F
:1001DC000221A04801F026F9002204219D4801F0DB
:1001EC0021F9012208219B4801F01CF90122102160
:1001FC00984801F017F901222021964801F012F9D4
:10020C0001224021934801F00DF91FE10022012148
:10021C00904801F007F9002202218E4801F002F902
:10022C00012204218B4801F0FDF8002208218948A5
:10023C0001F0F8F800221021864801F0F3F80122B1
:10024C002021844801F0EEF800224021814801F081
:10025C00E9F8FBE0002201217E4801F0E3F80022DE
:10026C0002217C4801F0DEF800220421794801F0DB
:10027C00D9F800220821774801F0D4F80122102186
:10028C00744801F0CFF801222021724801F0CAF81D
:10029C00002240216F4801F0C5F8D7E0012201216E
:1002AC006C4801F0BFF8002202216A4801F0BAF84C
:1002BC0000220421674801F0B5F8012208216548A5
:1002CC0001F0B0F801221021624801F0ABF80022D5
:1002DC002021604801F0A6F8002240215D4801F081
:1002EC00A1F8B3E0002201215A4801F09BF8012249
:1002FC000221584801F096F800220421554801F0DB
:10030C0091F800220821534801F08CF801221021A9
:10031C00504801F087F8002220214E4801F082F865
:10032C00002240214B4801F07DF88FE00022012192
:10033C00484801F077F801220221464801F072F892
:10034C0000220421434801F06DF8002208214148A5
:10035C0001F068F8002210213E4801F063F80022F9
:10036C0020213C4801F05EF800224021394801F080
:10037C0059F86BE000220121364801F053F80022B5
:10038C000221344801F04EF800220421314801F0DA
:10039C0049F8012208212F4801F044F801221021CC
:1003AC002C4801F03FF8012220212A4801F03AF8AC
:1003BC0001224021274801F035F847E000220121B5
:1003CC00244801F02FF800220221224801F02AF8DB
:1003DC00002204211F4801F025F8002208211D48A5
:1003EC0001F020F8002210211A4801F01BF800221D
:1003FC002021184801F016F800224021154801F080
:10040C0011F823E000220121124801F00BF8002220
:10041C000221104801F006F8002204210D4801F0D9
:10042C0001F8002208210B4800F0FCFF01221021EA
:10043C00084800F0F7FF00222021064800F0F2FFE8
:10044C0000224021034800F0EDFF00BF00BF083739
:10045C00BD4680BD000C014080B582B000AF786015
:10046C007B68082B00F2908101A252F823F000BFA8
:10047C00A1040008F5040008490500089D050008C2
:10048C00F10500084506000899060008ED0600086D
:10049C004107000800228021D24800F0C3FF00224F
:1004AC004FF48071CF4800F0BDFF00224FF4007173
:1004BC00CC4800F0B7FF00224FF48061C94800F02F
:1004CC00B1FF00224FF40061C64800F0ABFF0022E0
:1004DC004FF48051C34800F0A5FF01224FF40051A6
:1004EC00C04800F09FFF79E101228021BD4800F057
:1004FC0099FF00224FF48071BA4800F093FF00225C
:10050C004FF40071B74800F08DFF01224FF4806169
:10051C00B44800F087FF01224FF40061B14800F0AD
:10052C0081FF01224FF48051AE4800F07BFF012285
:10053C004FF40051AB4800F075FF4FE100228021D1
:10054C00A84800F06FFF00224FF48071A54800F01E
:10055C0069FF01224FF40071A24800F063FF0022F2
:10056C004FF480619F4800F05DFF00224FF4006162
:10057C009C4800F057FF01224FF48051994800F03D
:10058C0051FF00224FF40051964800F04BFF25E13B
:10059C0000228021934800F045FF00224FF4807127
:1005AC00904800F03FFF00224FF400718D4800F09E
:1005BC0039FF00224FF480618A4800F033FF01229A
:1005CC004FF40061874800F02DFF01224FF4805159
:1005DC00844800F027FF00224FF40051814800F0BE
:1005EC0021FFFBE0012280217E4800F01BFF00224E
:1005FC004FF480717B4800F015FF00224FF400711E
:10060C00784800F00FFF01224FF48061754800F02C
:10061C0009FF01224FF40061724800F003FF002231
:10062C004FF480516F4800F0FDFE00224FF4005152
:10063C006C4800F0F7FED1E000228021694800F000
:10064C00F1FE01224FF48071664800F0EBFE0022AF
:10065C004FF40071634800F0E5FE00224FF4806116
:10066C00604800F0DFFE01224FF400615D4800F0AD
:10067C00D9FE00224FF480515A4800F0D3FE0022DC
:10068C004FF40051574800F0CDFEA7E00022802126
:10069C00544800F0C7FE01224FF48071514800F01D
:1006AC00C1FE00224FF400714E4800F0BBFE002248
:1006BC004FF480614B4800F0B5FE00224FF400610E
:1006CC00484800F0AFFE00224FF48051454800F03E
:1006DC00A9FE00224FF40051424800F0A3FE7DE039
:1006EC00002280213F4800F09DFE00224FF48071D3
:1006FC003C4800F097FE00224FF40071394800F09E
:10070C0091FE01224FF48061364800F08BFE0122ED
:10071C004FF40061334800F085FE01224FF4805104
:10072C00304800F07FFE01224FF400512D4800F0BC
:10073C0079FE53E0002280212A4800F073FE00224B
:10074C004FF48071274800F06DFE00224FF40071C9
:10075C00244800F067FE00224FF48061214800F02D
:10076C0061FE00224FF400611E4800F05BFE002287
:10077C004FF480511B4800F055FE00224FF40051FD
:10078C00184800F04FFE29E000228021154800F0A7
:10079C0049FE00224FF48071124800F043FE002203
:1007AC004FF400710F4800F03DFE00224FF48061C1
:1007BC000C4800F037FE01224FF40061094800F0AC
:1007CC0031FE00224FF48051064800F02BFE00222F
:1007DC004FF40051034800F025FE00BF00BF08375E
:1007EC00BD4680BD000C014080B500AF00F036FB6B
:1007FC0000F070F900F0AAF94FF4967000F002FACC
:10080C00C82000F013FA4FF4967000F023FAC820B9
:10081C0000F034FAA54B1B68002B47D10022202195
:10082C00A34800F0FFFD01224021A14800F0FAFD91
:10083C00012280219E4800F0F5FD01224FF48071C9
:10084C009B4800F0EFFD01224FF40071984800F036
:10085C00E9FD00224FF48061954800F0E3FD954BD3
:10086C001A68954B83FB02135911D317CB1A6421C9
:10087C0001FB03F3D31A002B40F0F3808D4B1B6864
:10088C008D4A82FB03125211DB17D31A1846FFF75D
:10089C00E3FD884B1B68884A82FB03125211DB175D
:1008AC00D31A02331846FFF74BFCDAE0834B1B6874
:1008BC00002B46D1002220217D4800F0B3FD0122FF
:1008CC0040217B4800F0AEFD01228021784800F0E9
:1008DC00A9FD01224FF48071754800F0A3FD0022A0
:1008EC004FF40071724800F09DFD01224FF48061BD
:1008FC006F4800F097FD724B1A686F4B83FB021325
:10090C005911D317CB1A642101FB03F3D31A002B13
:10091C0040F0A7806A4B1B68674A82FB0312521196
:10092C00DB17D31A1846FFF797FD654B1B68624A15
:10093C0082FB03125211DB17D31A1846FFF700FC87
:10094C008FE0604B1B68002B46D1012220215848B8
:10095C0000F068FD01224021554800F063FD0022A3
:10096C008021534800F05EFD00224FF48071504806
:10097C0000F058FD01224FF400714D4800F052FD7B
:10098C0001224FF480614A4800F04CFD4E4B1A682E
:10099C00494B83FB02135911D317CB1A642101FB6A
:1009AC0003F3D31A002B5CD1474B1B68424A82FBE2
:1009BC0003125211DB17D31A1846FFF7C1FB424B37
:1009CC001B683D4A82FB03125211DB17D31A023308
:1009DC001846FFF741FD44E001222021344800F085
:1009EC0021FD00224021324800F01CFD0122802113
:1009FC002F4800F017FD00224FF480712C4800F0B6
:100A0C0011FD01224FF40071294800F00BFD012269
:100A1C004FF48061264800F005FD2C4B1A68264BDC
:100A2C0083FB02135911D317CB1A642101FB03F377
:100A3C00D31A002B15D1254B1B681F4A82FB0312BE
:100A4C005211DB17D31A1846FFF77AFB1F4B1B68A2
:100A5C00194A82FB03125211DB17D31A1846FFF7FF
:100A6C00FBFC00F01FF9114B1B68012B19D1134B28
:100A7C001B68012B15D1134B1B68012B11D1144B87
:100A8C001B68012B0DD14FF4967000F0BBF8C820F9
:100A9C0000F0CCF84FF4967000F0DCF8C82000F0B1
:100AAC00EDF80A2000F03CFAB4E600BF2C00002060
:100ABC0000080140280000201F85EB513400002065
:100ACC00300000203C0000203800002040000020B6
:100ADC004400002080B590B000AF07F11803282225
:100AEC000021184601F0B6F83B1D00221A605A602E
:100AFC009A60DA601A610223BB610123BB62102386
:100B0C00FB6200237B6307F11803184600F0A2FC7C
:100B1C000346002B01D000F06FF80F237B600023FD
:100B2C00BB600023FB6000233B6100237B613B1D0A
:100B3C000021184600F00EFF0346002B01D000F0F8
:100B4C005BF800BF4037BD4680BD000080B586B065
:100B5C0000AF07F1080300221A605A609A60DA604D
:100B6C00224B9B69214A43F0040393611F4B9B6901
:100B7C0003F004037B607B681C4B9B691B4A43F0AE
:100B8C0008039361194B9B6903F008033B603B68B6
:100B9C0000224FF4FC61164800F044FC002243F69E
:100BAC00FF71144800F03EFC4FF4FC63BB60012362
:100BBC00FB6000233B6102237B6107F108031946AC
:100BCC000B4800F0B5FA43F6FF73BB600123FB60E2
:100BDC0000233B6102237B6107F10803194605489A
:100BEC0000F0A6FA00BF1837BD4680BD00100240C9
:100BFC0000080140000C014080B400AF72B600BF89
:100C0C00FEE7000080B483B000AF7860054A7B68D3
:100C1C001360054B00221A6000BF0C37BD4680BC28
:100C2C00704700BF280000202C00002080B483B047
:100C3C0000AF7860054A7B681360054B00221A6090
:100C4C0000BF0C37BD4680BC704700BF3000002091
:100C5C003400002080B483B000AF7860054A7B6814
:100C6C001360054B00221A6000BF0C37BD4680BCD8
:100C7C00704700BF380000203C00002080B483B0D7
:100C8C0000AF7860054A7B681360054B00221A6040
:100C9C0000BF0C37BD4680BC704700BF4000002031
:100CAC004400002080B400AF214B1B68002B0CDDEE
:100CBC001F4B1B68013B1E4A13601D4B1B68002B0E
:100CCC0031DC1C4B01221A602DE01B4B1B68002BE6
:100CDC000CDD194B1B68013B174A1360164B1B6844
:100CEC00002B20DC154B01221A601CE0144B1B68F6
:100CFC00002B0CDD124B1B68013B114A1360104B8F
:100D0C001B68002B0FDC0F4B01221A600BE00E4B03
:100D1C001B68013B0C4A13600B4B1B68002B02DC5D
:100D2C000A4B01221A6000BFBD4680BC704700BF51
:100D3C00280000202C00002030000020340000206F
:100D4C00380000203C00002040000020440000201F
:100D5C0080B485B000AF154B9B69144A43F0010376
:100D6C009361124B9B6903F00103BB60BB680F4B93
:100D7C00DB690E4A43F08053D3610C4BDB6903F003
:100D8C0080537B607B680A4B5B68FB60FB6823F0DD
:100D9C00E063FB60FB6843F08063FB60044AFB6824
:100DAC00536000BF1437BD4680BC70470010024032
:100DBC000000014080B400AFFEE780B400AFFEE756
:100DCC0080B400AFFEE780B400AFFEE780B400AFA4
:100DDC00FEE780B400AF00BFBD4680BC704780B456
:100DEC0000AF00BFBD4680BC704780B400AF00BFF1
:100DFC00BD4680BC704780B500AF00F075F800BFF1
:100E0C0080BD80B400AF00BFBD4680BC7047000001
:100E1C00FFF7F7FF0B480C490C4A002302E0D458AB
:100E2C00C4500433C4188C42F9D3094A094C00232A
:100E3C0001E013600432A242FBD300F0E7FEFFF79F
:100E4C00D3FC7047000000200C000020B41C0008EC
:100E5C000C0000204C000020FEE7000080B500AF25
:100E6C00084B1B68074A43F010031360032000F083
:100E7C002BF90F2000F008F8FFF76AFF0023184643
:100E8C0080BD00BF0020024080B582B000AF78600A
:100E9C00124B1A68124B1B7819464FF47A73B3FB3A
:100EAC00F1F3B2FBF3F3184600F035F90346002BCF
:100EBC0001D001230EE07B680F2B0AD80022796841
:100ECC004FF0FF3000F00BF9064A7B6813600023EB
:100EDC0000E0012318460837BD4680BD0000002005
:100EEC00080000200400002080B400AF054B1B78E4
:100EFC001A46054B1B681344034A136000BFBD46DA
:100F0C0080BC7047080000204800002080B400AF6F
:100F1C00024B1B681846BD4680BC70474800002039
:100F2C0080B584B000AF7860FFF7F0FFB8607B68E5
:100F3C00FB60FB68B3F1FF3F05D00A4B1B781A46E8
:100F4C00FB681344FB6000BFFFF7E0FF0246BB6881
:100F5C00D31AFA689A42F7D800BF00BF1037BD46C3
:100F6C0080BD00BF0800002080B485B000AF786061
:100F7C007B6803F00703FB600C4BDB68BB60BA6853
:100F8C004FF6FF031340BB60FB681A02BB681343A8
:100F9C0043F0BF6343F40033BB60044ABB68D360C7
:100FAC0000BF1437BD4680BC704700BF00ED00E0A9
:100FBC0080B400AF044BDB681B0A03F00703184630
:100FCC00BD4680BC704700BF00ED00E080B483B02C
:100FDC0000AF03463960FB7197F90730002B0ADB31
:100FEC003B68DAB20C4997F907301201D2B20B44C4
:100FFC0083F800230AE03B68DAB20849FB7903F076
:10100C000F03043B1201D2B20B441A7600BF0C370B
:10101C00BD4680BC704700BF00E100E000ED00E081
:10102C0080B489B000AFF860B9607A60FB6803F0F7
:10103C000703FB61FB69C3F10703042B28BF0423DF
:10104C00BB61FB690433062B02D9FB69033B00E04F
:10105C0000237B614FF0FF32BB6902FA03F3DA43E2
:10106C00BB681A407B699A404FF0FF317B6901FAEB
:10107C0003F3D9437B680B40134318462437BD4612
:10108C0080BC704780B582B000AF78607B68013B54
:10109C00B3F1807F01D301230FE00A4A7B68013B47
:1010AC0053600F214FF0FF30FFF790FF054B0022EC
:1010BC009A60044B07221A60002318460837BD4675
:1010CC0080BD00BF10E000E080B582B000AF78605A
:1010DC007868FFF749FF00BF0837BD4680BD80B573
:1010EC0086B000AF0346B9607A60FB7300237B6166
:1010FC00FFF75EFF78617A68B9687869FFF790FF4F
:10110C00024697F90F3011461846FFF75FFF00BFF4
:10111C001837BD4680BD80B582B000AF7860786866
:10112C00FFF7B0FF034618460837BD4680BD0000E8
:10113C0080B48BB000AF7860396000237B620023F1
:10114C003B6248E101227B6A02FA03F3FB613B68D4
:10115C001B68FA691340BB61BA69FB699A4240F09B
:10116C0037813B685B68A34A93425ED0A14A9342A5
:10117C0075D8A14A934258D09F4A93426FD89F4A40
:10118C00934252D09D4A934269D89D4A93424CD087
:10119C009B4A934263D89B4A934246D0994A9342C6
:1011AC005DD8122B2AD8122B59D801A252F823F051
:1011BC0037120008111200082312000865120008EB
:1011CC006B1200086B1200086B1200086B120008FF
:1011DC006B1200086B1200086B1200086B120008EF
:1011EC006B1200086B1200086B1200086B120008DF
:1011FC006B120008191200082D120008824A934243
:10120C0013D02CE03B68DB683B6229E03B68DB6871
:10121C0004333B6224E03B68DB6808333B621FE02D
:10122C003B68DB680C333B621AE03B689B68002B25
:10123C0002D104233B6213E03B689B68012B05D170
:10124C0008233B627B68FA691A6109E008233B6258
:10125C007B68FA695A6103E000233B6200E000BF3F
:10126C00BB69FF2B01D87B6801E07B6804337B6191
:10127C00BB69FF2B02D87B6A9B0002E07B6A083BB0
:10128C009B003B617B691A680F213B6901FA03F3F0
:10129C00DB431A40396A3B6901FA03F31A437B6951
:1012AC001A603B685B6803F08053002B00F0908061
:1012BC00564B9B69554A43F001039361534B9B6911
:1012CC0003F00103BB60BB68514A7B6A9B08023385
:1012DC0052F82330FB607B6A03F003039B000F2260
:1012EC0002FA03F3DB43FA681340FB607B68494A5C
:1012FC0093420DD07B68484A934207D07B68474A9B
:10130C00934201D1022304E0032302E0012300E015
:10131C0000237A6A02F0030292009340FA681343A6
:10132C00FB603B497B6A9B080233FA6841F8232037
:10133C003B685B6803F48013002B06D0384B9A682B
:10134C003749BB6913438B6006E0354B9A68BB6920
:10135C00DB43334913408B603B685B6803F4001339
:10136C00002B06D02E4BDA682D49BB691343CB609A
:10137C0006E02B4BDA68BB69DB4329491340CB6091
:10138C003B685B6803F40033002B06D0244B5A688F
:10139C002349BB6913434B6006E0214B5A68BB6978
:1013AC00DB431F4913404B603B685B6803F480339D
:1013BC00002B06D01A4B1A681949BB6913430B60F2
:1013CC0006E0174B1A68BB69DB43154913400B60E9
:1013DC007B6A01337B623B681A687B6A22FA03F3EF
:1013EC00002B7FF4AFAE00BF00BF2C37BD4680BCD6
:1013FC00704700BF000032100000311000002210B6
:10140C00000021100000121000001110001002400A
:10141C000000014000080140000C01400010014098
:10142C000004014080B483B000AF78600B467B8031
:10143C0013467B707B78002B03D07A887B681A610B
:10144C0003E07B881A047B681A6100BF0C37BD4629
:10145C0080BC704780B586B000AF78607B68002B8D
:10146C0001D101236CE27B681B6803F00103002BA4
:10147C0000F08780924B5B6803F00C03042B0CD0BC
:10148C008F4B5B6803F00C03082B12D18C4B5B6801
:10149C0003F48033B3F5803F0BD1894B1B6803F405
:1014AC000033002B6CD07B685B68002B68D1012368
:1014BC0046E27B685B68B3F5803F06D1804B1B68C6
:1014CC007F4A43F4803313602EE07B685B68002B0B
:1014DC000CD17B4B1B687A4A23F480331360784B16
:1014EC001B68774A23F4802313601DE07B685B68DC
:1014FC00B3F5A02F0CD1724B1B68714A43F48023B7
:10150C0013606F4B1B686E4A43F4803313600BE01F
:10151C006B4B1B686A4A23F480331360684B1B685F
:10152C00674A23F4802313607B685B68002B13D01D
:10153C00FFF7ECFC386108E0FFF7E8FC02463B697A
:10154C00D31A642B01D90323FAE15D4B1B6803F416
:10155C000033002BF0D014E0FFF7D8FC386108E022
:10156C00FFF7D4FC02463B69D31A642B01D9032341
:10157C00E6E1534B1B6803F40033002BF0D100E081
:10158C0000BF7B681B6803F00203002B63D04C4B3D
:10159C005B6803F00C03002B0BD0494B5B6803F02A
:1015AC000C03082B1CD1464B5B6803F48033002BD7
:1015BC0016D1434B1B6803F00203002B05D07B684C
:1015CC001B69012B01D00123BAE13D4B1B6823F0B1
:1015DC00F8027B685B69DB00394913430B603AE026
:1015EC007B681B69002B20D0364B01221A60FFF759
:1015FC008DFC386108E0FFF789FC02463B69D31A81
:10160C00022B01D903239BE12D4B1B6803F0020332
:10161C00002BF0D02A4B1B6823F0F8027B685B6927
:10162C00DB00274913430B6015E0264B00221A60A0
:10163C00FFF76CFC386108E0FFF768FC02463B6979
:10164C00D31A022B01D903237AE11D4B1B6803F03B
:10165C000203002BF0D17B681B6803F00803002BFE
:10166C003AD07B689B69002B19D0174B01221A606A
:10167C00FFF74CFC386108E0FFF748FC02463B6979
:10168C00D31A022B01D903235AE10D4B5B6A03F0E9
:10169C000203002BF0D0012000F09AFA1CE00A4B58
:1016AC0000221A60FFF732FC38610FE0FFF72EFCC6
:1016BC0002463B69D31A022B08D9032340E100BF31
:1016CC000010024000004242800442429E4B5B6A82
:1016DC0003F00203002BE9D17B681B6803F00403C1
:1016EC00002B00F0A6800023FB75974BDB6903F001
:1016FC008053002B0DD1944BDB69934A43F08053FC
:10170C00D361914BDB6903F08053BB60BB68012351
:10171C00FB758E4B1B6803F48073002B18D18B4B1D
:10172C001B688A4A43F480731360FFF7EFFB386140
:10173C0008E0FFF7EBFB02463B69D31A642B01D997
:10174C000323FDE0814B1B6803F48073002BF0D066
:10175C007B68DB68012B06D17B4B1B6A7A4A43F012
:10176C00010313622DE07B68DB68002B0CD1764BF8
:10177C001B6A754A23F001031362734B1B6A724A8E
:10178C0023F0040313621CE07B68DB68052B0CD18F
:10179C006D4B1B6A6C4A43F0040313626A4B1B6A61
:1017AC00694A43F0010313620BE0674B1B6A664AFC
:1017BC0023F001031362644B1B6A634A23F0040396
:1017CC0013627B68DB68002B15D0FFF79FFB386139
:1017DC000AE0FFF79BFB02463B69D31A41F28832C1
:1017EC00934201D90323ABE0574B1B6A03F002036E
:1017FC00002BEED014E0FFF789FB38610AE0FFF70D
:10180C0085FB02463B69D31A41F28832934201D9D7
:10181C00032395E04C4B1B6A03F00203002BEED123
:10182C00FB7D012B05D1484BDB69474A23F08053E4
:10183C00D3617B68DB69002B00F08180424B5B68D5
:10184C0003F00C03082B61D07B68DB69022B46D1BB
:10185C003F4B00221A60FFF759FB386108E0FFF795
:10186C0055FB02463B69D31A022B01D9032367E0CF
:10187C00354B1B6803F00073002BF0D17B681B6A9F
:10188C00B3F5803F08D1304B5B6823F400327B68A2
:10189C009B682D4913434B602B4B5B6823F47412EC
:1018AC007B68196A7B685B6A0B43274913434B605F
:1018BC00274B01221A60FFF729FB386108E0FFF77C
:1018CC0025FB02463B69D31A022B01D9032337E0CF
:1018DC001D4B1B6803F00073002BF0D02FE01C4B4A
:1018EC0000221A60FFF712FB386108E0FFF70EFBCD
:1018FC0002463B69D31A022B01D9032320E0124B79
:10190C001B6803F00073002BF0D118E07B68DB69D7
:10191C00012B01D1012313E00B4B5B68FB60FB68CF
:10192C0003F480327B681B6A9A4206D1FB6803F48D
:10193C0070127B685B6A9A4201D0012300E000239D
:10194C0018461837BD4680BD00100240007000409C
:10195C006000424280B584B000AF786039607B682B
:10196C00002B01D10123D0E06A4B1B6803F0070365
:10197C003A689A4210D9674B1B6823F007026549F5
:10198C003B6813430B60634B1B6803F007033A6817
:10199C009A4201D00123B8E07B681B6803F0020374
:1019AC00002B20D07B681B6803F00403002B05D0B0
:1019BC00594B5B68584A43F4E06353607B681B687F
:1019CC0003F00803002B05D0534B5B68524A43F4D9
:1019DC0060535360504B5B6823F0F0027B689B684C
:1019EC004D4913434B607B681B6803F00103002BCC
:1019FC0040D07B685B68012B07D1474B1B6803F415
:101A0C000033002B15D101237FE07B685B68022B30
:101A1C0007D1414B1B6803F00073002B09D1012344
:101A2C0073E03D4B1B6803F00203002B01D1012333
:101A3C006BE0394B5B6823F003027B685B683649CB
:101A4C0013434B60FFF762FAF8600AE0FFF75EFAA7
:101A5C000246FB68D31A41F28832934201D9032320
:101A6C0053E02D4B5B6803F00C027B685B689B00BA
:101A7C009A42EBD1274B1B6803F007033A689A4252
:101A8C0010D2244B1B6823F0070222493B681343F6
:101A9C000B60204B1B6803F007033A689A4201D095
:101AAC00012332E07B681B6803F00403002B08D091
:101ABC00194B5B6823F4E0627B68DB6816491343BF
:101ACC004B607B681B6803F00803002B09D0124B9A
:101ADC005B6823F460527B681B69DB000E4913437F
:101AEC004B6000F021F802460B4B5B681B0903F0BE
:101AFC000F030A49CB5C22FA03F3094A1360094B22
:101B0C001B681846FFF7C0F9002318461037BD466E
:101B1C0080BD00BF0020024000100240881C00085D
:101B2C00000000200400002080B487B000AF002328
:101B3C00FB600023BB6000237B6100237B600023E0
:101B4C003B611E4B5B68FB60FB6803F00C03042BD2
:101B5C0002D0082B03D027E0194B3B6127E0FB6830
:101B6C009B0C03F00F03174AD35C7B60FB6803F4F8
:101B7C008033002B10D0114B5B685B0C03F001031E
:101B8C00114AD35CBB607B680D4A02FB03F2BB6855
:101B9C00B2FBF3F37B6104E07B680C4A02FB03F3BA
:101BAC007B617B693B6102E0054B3B6100BF3B699C
:101BBC0018461C37BD4680BC704700BF0010024061
:101BCC0000127A00981C0008A81C000800093D00AF
:101BDC0080B485B000AF78600A4B1B680A4AA2FB40
:101BEC0003235B0A7A6802FB03F3FB6000BFFB680C
:101BFC005A1EFA60002BF9D100BF00BF1437BD4646
:101C0C0080BC704700000020D34D621070B50026D8
:101C1C000C4D0D4C641BA410A64209D100F022F807
:101C2C0000260A4D0A4C641BA410A64205D170BDB7
:101C3C0055F8043B98470136EEE755F8043B9847B6
:101C4C000136F2E7AC1C0008AC1C0008AC1C000808
:101C5C00B01C000803460244934200D1704703F8BD
:101C6C00011BF9E7F8B500BFF8BC08BC9E467047ED
:0C1C7C00F8B500BFF8BC08BC9E467047DD
:101C88000000000000000000010203040607080924
:101C980002030405060708090A0B0C0D0E0F1010A5
:041CA8000102000035
:041CAC0031010008FA
:041CB0000D0100081A
:0C1CB4000024F4001000000001000000FB
:0400000508000E1DC4
:00000001FF
